{
  "contractName": "BPool",
  "abi": [
    {
      "inputs": [
        {
          "internalType": "address",
          "name": "_token",
          "type": "address"
        }
      ],
      "stateMutability": "nonpayable",
      "type": "constructor"
    },
    {
      "anonymous": false,
      "inputs": [
        {
          "indexed": false,
          "internalType": "string",
          "name": "side",
          "type": "string"
        },
        {
          "indexed": true,
          "internalType": "address",
          "name": "from",
          "type": "address"
        },
        {
          "indexed": false,
          "internalType": "uint256",
          "name": "amount",
          "type": "uint256"
        }
      ],
      "name": "betEvent",
      "type": "event"
    },
    {
      "inputs": [],
      "name": "totalBetDown",
      "outputs": [
        {
          "internalType": "uint256",
          "name": "",
          "type": "uint256"
        }
      ],
      "stateMutability": "view",
      "type": "function",
      "constant": true
    },
    {
      "inputs": [],
      "name": "totalBetUp",
      "outputs": [
        {
          "internalType": "uint256",
          "name": "",
          "type": "uint256"
        }
      ],
      "stateMutability": "view",
      "type": "function",
      "constant": true
    },
    {
      "inputs": [
        {
          "internalType": "uint256",
          "name": "_amount",
          "type": "uint256"
        },
        {
          "internalType": "bool",
          "name": "_up",
          "type": "bool"
        }
      ],
      "name": "bet",
      "outputs": [],
      "stateMutability": "nonpayable",
      "type": "function"
    },
    {
      "inputs": [],
      "name": "judge",
      "outputs": [],
      "stateMutability": "nonpayable",
      "type": "function"
    },
    {
      "inputs": [],
      "name": "getBettingOdd",
      "outputs": [],
      "stateMutability": "nonpayable",
      "type": "function"
    },
    {
      "inputs": [],
      "name": "getBalance",
      "outputs": [],
      "stateMutability": "nonpayable",
      "type": "function"
    },
    {
      "inputs": [],
      "name": "getPrice",
      "outputs": [
        {
          "internalType": "uint256",
          "name": "",
          "type": "uint256"
        }
      ],
      "stateMutability": "view",
      "type": "function",
      "constant": true
    }
  ],
  "bytecode": "0x60806040523480156200001157600080fd5b5060405162000d9038038062000d90833981810160405281019062000037919062000143565b336000806101000a81548173ffffffffffffffffffffffffffffffffffffffff021916908373ffffffffffffffffffffffffffffffffffffffff16021790555080600160006101000a81548173ffffffffffffffffffffffffffffffffffffffff021916908373ffffffffffffffffffffffffffffffffffffffff16021790555080600260006101000a81548173ffffffffffffffffffffffffffffffffffffffff021916908373ffffffffffffffffffffffffffffffffffffffff160217905550612710436200010991906200016f565b600781905550614e20436200011f91906200016f565b6008819055505062000253565b6000815190506200013d8162000239565b92915050565b6000602082840312156200015657600080fd5b600062000166848285016200012c565b91505092915050565b60006200017c8262000200565b9150620001898362000200565b9250827fffffffffffffffffffffffffffffffffffffffffffffffffffffffffffffffff03821115620001c157620001c06200020a565b5b828201905092915050565b6000620001d982620001e0565b9050919050565b600073ffffffffffffffffffffffffffffffffffffffff82169050919050565b6000819050919050565b7f4e487b7100000000000000000000000000000000000000000000000000000000600052601160045260246000fd5b6200024481620001cc565b81146200025057600080fd5b50565b610b2d80620002636000396000f3fe608060405234801561001057600080fd5b506004361061007d5760003560e01c80637b09c9671161005b5780637b09c967146100b457806398d5fdca146100d25780639a6d3aaa146100f0578063bd6ec0051461010c5761007d565b806312065fe014610082578063238c1e8c1461008c578063573255f4146100aa575b600080fd5b61008a610116565b005b610094610118565b6040516100a1919061097e565b60405180910390f35b6100b261011e565b005b6100bc610164565b6040516100c9919061097e565b60405180910390f35b6100da61016a565b6040516100e7919061097e565b60405180910390f35b61010a6004803603810190610105919061060e565b6101af565b005b610114610566565b005b565b60045481565b6008544311610162576040517f08c379a00000000000000000000000000000000000000000000000000000000081526004016101599061095e565b60405180910390fd5b565b60035481565b60008060014361017a9190610a00565b404260405160200161018d929190610816565b6040516020818303038152906040528051906020012060001c90508091505090565b60075443106101f3576040517f08c379a00000000000000000000000000000000000000000000000000000000081526004016101ea906108c2565b60405180910390fd5b81600260009054906101000a900473ffffffffffffffffffffffffffffffffffffffff1673ffffffffffffffffffffffffffffffffffffffff1663dd62ed3e33306040518363ffffffff1660e01b8152600401610251929190610842565b60206040518083038186803b15801561026957600080fd5b505afa15801561027d573d6000803e3d6000fd5b505050506040513d601f19601f820116820180604052508101906102a191906105e5565b10156102e2576040517f08c379a00000000000000000000000000000000000000000000000000000000081526004016102d9906108a2565b60405180910390fd5b6000600260009054906101000a900473ffffffffffffffffffffffffffffffffffffffff1673ffffffffffffffffffffffffffffffffffffffff166323b872dd3330866040518463ffffffff1660e01b81526004016103439392919061086b565b602060405180830381600087803b15801561035d57600080fd5b505af1158015610371573d6000803e3d6000fd5b505050506040513d601f19601f8201168201806040525081019061039591906105bc565b9050806103d7576040517f08c379a00000000000000000000000000000000000000000000000000000000081526004016103ce9061093e565b60405180910390fd5b81156104a15782600560003373ffffffffffffffffffffffffffffffffffffffff1673ffffffffffffffffffffffffffffffffffffffff168152602001908152602001600020600082825461042c91906109aa565b92505081905550826003600082825461044591906109aa565b925050819055503373ffffffffffffffffffffffffffffffffffffffff167f8ea12565978d809ec49b3a655ae017f74f457f0443d0162f2562e811605d4a9e60035460405161049491906108e2565b60405180910390a2610561565b82600660003373ffffffffffffffffffffffffffffffffffffffff1673ffffffffffffffffffffffffffffffffffffffff16815260200190815260200160002060008282546104f091906109aa565b92505081905550826004600082825461050991906109aa565b925050819055503373ffffffffffffffffffffffffffffffffffffffff167f8ea12565978d809ec49b3a655ae017f74f457f0443d0162f2562e811605d4a9e6004546040516105589190610910565b60405180910390a25b505050565b565b60008135905061057781610ac9565b92915050565b60008151905061058c81610ac9565b92915050565b6000813590506105a181610ae0565b92915050565b6000815190506105b681610ae0565b92915050565b6000602082840312156105ce57600080fd5b60006105dc8482850161057d565b91505092915050565b6000602082840312156105f757600080fd5b6000610605848285016105a7565b91505092915050565b6000806040838503121561062157600080fd5b600061062f85828601610592565b925050602061064085828601610568565b9150509250929050565b61065381610a34565b82525050565b61066a61066582610a52565b610a86565b82525050565b600061067d600f83610999565b91507f4e6f7420617574686f72697a65642000000000000000000000000000000000006000830152602082019050919050565b60006106bd601f83610999565b91507f496e76616c696420616674657220726f756e64206861732073746172746564006000830152602082019050919050565b60006106fd600283610999565b91507f75700000000000000000000000000000000000000000000000000000000000006000830152602082019050919050565b600061073d600483610999565b91507f646f776e000000000000000000000000000000000000000000000000000000006000830152602082019050919050565b600061077d600f83610999565b91507f5472616e73666572204661696c656400000000000000000000000000000000006000830152602082019050919050565b60006107bd601e83610999565b91507f496e76616c6964206265666f726520726f756e642068617320656e64656400006000830152602082019050919050565b6107f981610a7c565b82525050565b61081061080b82610a7c565b610a90565b82525050565b60006108228285610659565b60208201915061083282846107ff565b6020820191508190509392505050565b6000604082019050610857600083018561064a565b610864602083018461064a565b9392505050565b6000606082019050610880600083018661064a565b61088d602083018561064a565b61089a60408301846107f0565b949350505050565b600060208201905081810360008301526108bb81610670565b9050919050565b600060208201905081810360008301526108db816106b0565b9050919050565b600060408201905081810360008301526108fb816106f0565b905061090a60208301846107f0565b92915050565b6000604082019050818103600083015261092981610730565b905061093860208301846107f0565b92915050565b6000602082019050818103600083015261095781610770565b9050919050565b60006020820190508181036000830152610977816107b0565b9050919050565b600060208201905061099360008301846107f0565b92915050565b600082825260208201905092915050565b60006109b582610a7c565b91506109c083610a7c565b9250827fffffffffffffffffffffffffffffffffffffffffffffffffffffffffffffffff038211156109f5576109f4610a9a565b5b828201905092915050565b6000610a0b82610a7c565b9150610a1683610a7c565b925082821015610a2957610a28610a9a565b5b828203905092915050565b6000610a3f82610a5c565b9050919050565b60008115159050919050565b6000819050919050565b600073ffffffffffffffffffffffffffffffffffffffff82169050919050565b6000819050919050565b6000819050919050565b6000819050919050565b7f4e487b7100000000000000000000000000000000000000000000000000000000600052601160045260246000fd5b610ad281610a46565b8114610add57600080fd5b50565b610ae981610a7c565b8114610af457600080fd5b5056fea26469706673582212201a08c739d9d07fd9fc6b9a242249a737b3f1bfa0e9ca2e519b0b3c22d43e1b5c64736f6c63430008000033",
  "immutableReferences": {},
  "source": "pragma solidity >=0.4.22 <0.9.0;\r\nimport \"@openzeppelin/contracts/token/ERC20/IERC20.sol\";\r\n\r\ncontract BPool {\r\n    //User can make a bet by using BNB\r\n\r\n    address owner; // onwer of contract\r\n    address token_; // Accepted token of this pool\r\n    IERC20 token;\r\n\r\n    uint256 public totalBetUp; // amount of token bet up\r\n    uint256 public totalBetDown;\r\n    // amount of token bet down\r\n    mapping(address => uint256) betUpBalances;\r\n    mapping(address => uint256) betDownBalances;\r\n\r\n    event betEvent(string side, address indexed from, uint256 amount);\r\n\r\n    uint256 startBlock; // Block of starting Price\r\n    uint256 endBlock; // Block of ending price\r\n\r\n    bool isActive; // Whether this block is still active\r\n\r\n    constructor(address _token) {\r\n        owner = msg.sender;\r\n        token_ = _token;\r\n        token = IERC20(_token);\r\n        startBlock = block.number + 10000;\r\n        endBlock = block.number + 20000;\r\n    }\r\n\r\n    modifier onlyBeforeStart() {\r\n        require(block.number < startBlock, \"Invalid after round has started\");\r\n        _;\r\n    }\r\n\r\n    modifier onlyAfterEnd() {\r\n        require(block.number > endBlock, \"Invalid before round has ended\");\r\n        _;\r\n    }\r\n\r\n    // user make a bet\r\n    function bet(uint256 _amount, bool _up) public onlyBeforeStart {\r\n        require(\r\n            token.allowance(msg.sender, address(this)) >= _amount,\r\n            \"Not authorized \"\r\n        );\r\n\r\n        bool success = token.transferFrom(msg.sender, address(this), _amount);\r\n        require(success, \"Transfer Failed\");\r\n\r\n        if (_up) {\r\n            betUpBalances[msg.sender] += _amount;\r\n            totalBetUp += _amount;\r\n            emit betEvent(\"up\", msg.sender, totalBetUp);\r\n        } else {\r\n            betDownBalances[msg.sender] += _amount;\r\n            totalBetDown += _amount;\r\n            emit betEvent(\"down\", msg.sender, totalBetDown);\r\n        }\r\n    }\r\n\r\n    // owner judge the result\r\n    function judge() public onlyAfterEnd {}\r\n\r\n    //return odd of the current betting pairs\r\n    function getBettingOdd() public {}\r\n\r\n    // return total betting value in the pool\r\n    function getBalance() public {}\r\n\r\n    // Get latest price of the undelying betting token\r\n    function getPrice() public view returns (uint256) {\r\n        uint256 price =\r\n            uint256(\r\n                keccak256(\r\n                    (\r\n                        abi.encodePacked(\r\n                            blockhash(block.number - 1),\r\n                            block.timestamp\r\n                        )\r\n                    )\r\n                )\r\n            );\r\n        return price;\r\n    }\r\n}\r\n",
  "sourcePath": "D:/Code/smart_contract/f2p/contracts/BPool.sol",
  "compiler": {
    "name": "solc",
    "version": "0.8.0+commit.c7dfd78e.Emscripten.clang"
  },
  "schemaVersion": "3.3.4",
  "updatedAt": "2021-04-03T15:50:23.037Z",
  "networkType": "ethereum",
  "devdoc": {
    "kind": "dev",
    "methods": {},
    "version": 1
  },
  "userdoc": {
    "kind": "user",
    "methods": {},
    "version": 1
  }
}