{
  "contractName": "BPool",
  "abi": [
    {
      "inputs": [
        {
          "internalType": "address",
          "name": "_token",
          "type": "address"
        }
      ],
      "stateMutability": "nonpayable",
      "type": "constructor"
    },
    {
      "inputs": [
        {
          "internalType": "uint256",
          "name": "_amount",
          "type": "uint256"
        },
        {
          "internalType": "bool",
          "name": "_up",
          "type": "bool"
        }
      ],
      "name": "bet",
      "outputs": [],
      "stateMutability": "nonpayable",
      "type": "function"
    },
    {
      "inputs": [],
      "name": "judge",
      "outputs": [],
      "stateMutability": "nonpayable",
      "type": "function"
    },
    {
      "inputs": [],
      "name": "getBettingOdd",
      "outputs": [],
      "stateMutability": "nonpayable",
      "type": "function"
    },
    {
      "inputs": [],
      "name": "getBalance",
      "outputs": [],
      "stateMutability": "nonpayable",
      "type": "function"
    },
    {
      "inputs": [],
      "name": "getPrice",
      "outputs": [
        {
          "internalType": "uint256",
          "name": "",
          "type": "uint256"
        }
      ],
      "stateMutability": "view",
      "type": "function",
      "constant": true
    }
  ],
  "bytecode": "0x608060405234801561001057600080fd5b50604051610ad3380380610ad38339818101604052810190610032919061010f565b336000806101000a81548173ffffffffffffffffffffffffffffffffffffffff021916908373ffffffffffffffffffffffffffffffffffffffff16021790555080600160006101000a81548173ffffffffffffffffffffffffffffffffffffffff021916908373ffffffffffffffffffffffffffffffffffffffff16021790555080600260006101000a81548173ffffffffffffffffffffffffffffffffffffffff021916908373ffffffffffffffffffffffffffffffffffffffff16021790555050610181565b6000815190506101098161016a565b92915050565b60006020828403121561012157600080fd5b600061012f848285016100fa565b91505092915050565b60006101438261014a565b9050919050565b600073ffffffffffffffffffffffffffffffffffffffff82169050919050565b61017381610138565b811461017e57600080fd5b50565b610943806101906000396000f3fe608060405234801561001057600080fd5b50600436106100575760003560e01c806312065fe01461005c578063573255f41461006657806398d5fdca146100705780639a6d3aaa1461008e578063bd6ec005146100aa575b600080fd5b6100646100b4565b005b61006e6100b6565b005b6100786100fc565b6040516100859190610794565b60405180910390f35b6100a860048036038101906100a39190610500565b610141565b005b6100b2610458565b005b565b60085443116100fa576040517f08c379a00000000000000000000000000000000000000000000000000000000081526004016100f190610774565b60405180910390fd5b565b60008060014361010c9190610816565b404260405160200161011f929190610688565b6040516020818303038152906040528051906020012060001c90508091505090565b6007544310610185576040517f08c379a000000000000000000000000000000000000000000000000000000000815260040161017c90610734565b60405180910390fd5b81600260009054906101000a900473ffffffffffffffffffffffffffffffffffffffff1673ffffffffffffffffffffffffffffffffffffffff1663dd62ed3e33306040518363ffffffff1660e01b81526004016101e39291906106b4565b60206040518083038186803b1580156101fb57600080fd5b505afa15801561020f573d6000803e3d6000fd5b505050506040513d601f19601f8201168201806040525081019061023391906104d7565b1015610274576040517f08c379a000000000000000000000000000000000000000000000000000000000815260040161026b90610714565b60405180910390fd5b6000600260009054906101000a900473ffffffffffffffffffffffffffffffffffffffff1673ffffffffffffffffffffffffffffffffffffffff166323b872dd3330866040518463ffffffff1660e01b81526004016102d5939291906106dd565b602060405180830381600087803b1580156102ef57600080fd5b505af1158015610303573d6000803e3d6000fd5b505050506040513d601f19601f8201168201806040525081019061032791906104ae565b905080610369576040517f08c379a000000000000000000000000000000000000000000000000000000000815260040161036090610754565b60405180910390fd5b81156103e35782600560003373ffffffffffffffffffffffffffffffffffffffff1673ffffffffffffffffffffffffffffffffffffffff16815260200190815260200160002060008282546103be91906107c0565b9250508190555082600360008282546103d791906107c0565b92505081905550610453565b82600660003373ffffffffffffffffffffffffffffffffffffffff1673ffffffffffffffffffffffffffffffffffffffff168152602001908152602001600020600082825461043291906107c0565b92505081905550826004600082825461044b91906107c0565b925050819055505b505050565b565b600081359050610469816108df565b92915050565b60008151905061047e816108df565b92915050565b600081359050610493816108f6565b92915050565b6000815190506104a8816108f6565b92915050565b6000602082840312156104c057600080fd5b60006104ce8482850161046f565b91505092915050565b6000602082840312156104e957600080fd5b60006104f784828501610499565b91505092915050565b6000806040838503121561051357600080fd5b600061052185828601610484565b92505060206105328582860161045a565b9150509250929050565b6105458161084a565b82525050565b61055c61055782610868565b61089c565b82525050565b600061056f600f836107af565b91507f4e6f7420617574686f72697a65642000000000000000000000000000000000006000830152602082019050919050565b60006105af601f836107af565b91507f496e76616c696420616674657220726f756e64206861732073746172746564006000830152602082019050919050565b60006105ef600f836107af565b91507f5472616e73666572204661696c656400000000000000000000000000000000006000830152602082019050919050565b600061062f601e836107af565b91507f496e76616c6964206265666f726520726f756e642068617320656e64656400006000830152602082019050919050565b61066b81610892565b82525050565b61068261067d82610892565b6108a6565b82525050565b6000610694828561054b565b6020820191506106a48284610671565b6020820191508190509392505050565b60006040820190506106c9600083018561053c565b6106d6602083018461053c565b9392505050565b60006060820190506106f2600083018661053c565b6106ff602083018561053c565b61070c6040830184610662565b949350505050565b6000602082019050818103600083015261072d81610562565b9050919050565b6000602082019050818103600083015261074d816105a2565b9050919050565b6000602082019050818103600083015261076d816105e2565b9050919050565b6000602082019050818103600083015261078d81610622565b9050919050565b60006020820190506107a96000830184610662565b92915050565b600082825260208201905092915050565b60006107cb82610892565b91506107d683610892565b9250827fffffffffffffffffffffffffffffffffffffffffffffffffffffffffffffffff0382111561080b5761080a6108b0565b5b828201905092915050565b600061082182610892565b915061082c83610892565b92508282101561083f5761083e6108b0565b5b828203905092915050565b600061085582610872565b9050919050565b60008115159050919050565b6000819050919050565b600073ffffffffffffffffffffffffffffffffffffffff82169050919050565b6000819050919050565b6000819050919050565b6000819050919050565b7f4e487b7100000000000000000000000000000000000000000000000000000000600052601160045260246000fd5b6108e88161085c565b81146108f357600080fd5b50565b6108ff81610892565b811461090a57600080fd5b5056fea2646970667358221220a72187688c79993c5cd4862497c61e51e749dbc260fb76e28010274171b85fd264736f6c63430008000033",
  "immutableReferences": {},
  "source": "pragma solidity >=0.4.22 <0.9.0;\r\nimport \"@openzeppelin/contracts/token/ERC20/IERC20.sol\";\r\n\r\ncontract BPool {\r\n    //User can make a bet by using BNB\r\n\r\n    address owner; // onwer of contract\r\n    address token_; // Accepted token of this pool\r\n    IERC20 token;\r\n\r\n    uint256 totalBetUp; // amount of token bet up\r\n    uint256 totalBetDown;\r\n    // amount of token bet down\r\n    mapping(address => uint256) betUpBalances;\r\n    mapping(address => uint256) betDownBalances;\r\n\r\n    uint256 startBlock; // Block of starting Price\r\n    uint256 endBlock; // Block of ending price\r\n\r\n    bool isActive; // Whether this block is still active\r\n\r\n    constructor(address _token) {\r\n        owner = msg.sender;\r\n        token_ = _token;\r\n        token = IERC20(_token);\r\n    }\r\n\r\n    modifier onlyBeforeStart() {\r\n        require(block.number < startBlock, \"Invalid after round has started\");\r\n        _;\r\n    }\r\n\r\n    modifier onlyAfterEnd() {\r\n        require(block.number > endBlock, \"Invalid before round has ended\");\r\n        _;\r\n    }\r\n\r\n    // user make a bet\r\n    function bet(uint256 _amount, bool _up) public onlyBeforeStart {\r\n        require(\r\n            token.allowance(msg.sender, address(this)) >= _amount,\r\n            \"Not authorized \"\r\n        );\r\n\r\n        bool success = token.transferFrom(msg.sender, address(this), _amount);\r\n        require(success, \"Transfer Failed\");\r\n\r\n        if (_up) {\r\n            betUpBalances[msg.sender] += _amount;\r\n            totalBetUp += _amount;\r\n        } else {\r\n            betDownBalances[msg.sender] += _amount;\r\n            totalBetDown += _amount;\r\n        }\r\n    }\r\n\r\n    // owner judge the result\r\n\r\n    function judge() public onlyAfterEnd {}\r\n\r\n    //return odd of the current betting pairs\r\n    function getBettingOdd() public {}\r\n\r\n    // return total betting value in the pool\r\n    function getBalance() public {}\r\n\r\n    // Get latest price of the undelying betting token\r\n    function getPrice() public view returns (uint256) {\r\n        uint256 price =\r\n            uint256(\r\n                keccak256(\r\n                    (\r\n                        abi.encodePacked(\r\n                            blockhash(block.number - 1),\r\n                            block.timestamp\r\n                        )\r\n                    )\r\n                )\r\n            );\r\n        return price;\r\n    }\r\n}\r\n",
  "sourcePath": "D:/Coding/Smart Contract/F2P/contracts/BPool.sol",
  "compiler": {
    "name": "solc",
    "version": "0.8.0+commit.c7dfd78e.Emscripten.clang"
  },
  "schemaVersion": "3.3.4",
  "updatedAt": "2021-04-01T10:20:06.532Z",
  "networkType": "ethereum",
  "devdoc": {
    "kind": "dev",
    "methods": {},
    "version": 1
  },
  "userdoc": {
    "kind": "user",
    "methods": {},
    "version": 1
  }
}