{
  "contractName": "BPool",
  "abi": [
    {
      "inputs": [
        {
          "internalType": "address",
          "name": "_token",
          "type": "address"
        }
      ],
      "stateMutability": "nonpayable",
      "type": "constructor"
    },
    {
      "anonymous": false,
      "inputs": [
        {
          "indexed": false,
          "internalType": "string",
          "name": "side",
          "type": "string"
        },
        {
          "indexed": true,
          "internalType": "address",
          "name": "from",
          "type": "address"
        },
        {
          "indexed": false,
          "internalType": "uint256",
          "name": "amount",
          "type": "uint256"
        }
      ],
      "name": "betEvent",
      "type": "event"
    },
    {
      "inputs": [
        {
          "internalType": "uint256",
          "name": "_amount",
          "type": "uint256"
        },
        {
          "internalType": "bool",
          "name": "_up",
          "type": "bool"
        }
      ],
      "name": "bet",
      "outputs": [],
      "stateMutability": "nonpayable",
      "type": "function"
    },
    {
      "inputs": [],
      "name": "judge",
      "outputs": [],
      "stateMutability": "nonpayable",
      "type": "function"
    },
    {
      "inputs": [],
      "name": "getBettingOdd",
      "outputs": [],
      "stateMutability": "nonpayable",
      "type": "function"
    },
    {
      "inputs": [],
      "name": "getBalance",
      "outputs": [],
      "stateMutability": "nonpayable",
      "type": "function"
    },
    {
      "inputs": [],
      "name": "getPrice",
      "outputs": [
        {
          "internalType": "uint256",
          "name": "",
          "type": "uint256"
        }
      ],
      "stateMutability": "view",
      "type": "function",
      "constant": true
    }
  ],
  "bytecode": "0x60806040523480156200001157600080fd5b5060405162000d2238038062000d22833981810160405281019062000037919062000143565b336000806101000a81548173ffffffffffffffffffffffffffffffffffffffff021916908373ffffffffffffffffffffffffffffffffffffffff16021790555080600160006101000a81548173ffffffffffffffffffffffffffffffffffffffff021916908373ffffffffffffffffffffffffffffffffffffffff16021790555080600260006101000a81548173ffffffffffffffffffffffffffffffffffffffff021916908373ffffffffffffffffffffffffffffffffffffffff160217905550612710436200010991906200016f565b600781905550614e20436200011f91906200016f565b6008819055505062000253565b6000815190506200013d8162000239565b92915050565b6000602082840312156200015657600080fd5b600062000166848285016200012c565b91505092915050565b60006200017c8262000200565b9150620001898362000200565b9250827fffffffffffffffffffffffffffffffffffffffffffffffffffffffffffffffff03821115620001c157620001c06200020a565b5b828201905092915050565b6000620001d982620001e0565b9050919050565b600073ffffffffffffffffffffffffffffffffffffffff82169050919050565b6000819050919050565b7f4e487b7100000000000000000000000000000000000000000000000000000000600052601160045260246000fd5b6200024481620001cc565b81146200025057600080fd5b50565b610abf80620002636000396000f3fe608060405234801561001057600080fd5b50600436106100575760003560e01c806312065fe01461005c578063573255f41461006657806398d5fdca146100705780639a6d3aaa1461008e578063bd6ec005146100aa575b600080fd5b6100646100b4565b005b61006e6100b6565b005b6100786100fc565b6040516100859190610910565b60405180910390f35b6100a860048036038101906100a391906105a0565b610141565b005b6100b26104f8565b005b565b60085443116100fa576040517f08c379a00000000000000000000000000000000000000000000000000000000081526004016100f1906108f0565b60405180910390fd5b565b60008060014361010c9190610992565b404260405160200161011f9291906107a8565b6040516020818303038152906040528051906020012060001c90508091505090565b6007544310610185576040517f08c379a000000000000000000000000000000000000000000000000000000000815260040161017c90610854565b60405180910390fd5b81600260009054906101000a900473ffffffffffffffffffffffffffffffffffffffff1673ffffffffffffffffffffffffffffffffffffffff1663dd62ed3e33306040518363ffffffff1660e01b81526004016101e39291906107d4565b60206040518083038186803b1580156101fb57600080fd5b505afa15801561020f573d6000803e3d6000fd5b505050506040513d601f19601f820116820180604052508101906102339190610577565b1015610274576040517f08c379a000000000000000000000000000000000000000000000000000000000815260040161026b90610834565b60405180910390fd5b6000600260009054906101000a900473ffffffffffffffffffffffffffffffffffffffff1673ffffffffffffffffffffffffffffffffffffffff166323b872dd3330866040518463ffffffff1660e01b81526004016102d5939291906107fd565b602060405180830381600087803b1580156102ef57600080fd5b505af1158015610303573d6000803e3d6000fd5b505050506040513d601f19601f82011682018060405250810190610327919061054e565b905080610369576040517f08c379a0000000000000000000000000000000000000000000000000000000008152600401610360906108d0565b60405180910390fd5b81156104335782600560003373ffffffffffffffffffffffffffffffffffffffff1673ffffffffffffffffffffffffffffffffffffffff16815260200190815260200160002060008282546103be919061093c565b9250508190555082600360008282546103d7919061093c565b925050819055503373ffffffffffffffffffffffffffffffffffffffff167f8ea12565978d809ec49b3a655ae017f74f457f0443d0162f2562e811605d4a9e6003546040516104269190610874565b60405180910390a26104f3565b82600660003373ffffffffffffffffffffffffffffffffffffffff1673ffffffffffffffffffffffffffffffffffffffff1681526020019081526020016000206000828254610482919061093c565b92505081905550826004600082825461049b919061093c565b925050819055503373ffffffffffffffffffffffffffffffffffffffff167f8ea12565978d809ec49b3a655ae017f74f457f0443d0162f2562e811605d4a9e6004546040516104ea91906108a2565b60405180910390a25b505050565b565b60008135905061050981610a5b565b92915050565b60008151905061051e81610a5b565b92915050565b60008135905061053381610a72565b92915050565b60008151905061054881610a72565b92915050565b60006020828403121561056057600080fd5b600061056e8482850161050f565b91505092915050565b60006020828403121561058957600080fd5b600061059784828501610539565b91505092915050565b600080604083850312156105b357600080fd5b60006105c185828601610524565b92505060206105d2858286016104fa565b9150509250929050565b6105e5816109c6565b82525050565b6105fc6105f7826109e4565b610a18565b82525050565b600061060f600f8361092b565b91507f4e6f7420617574686f72697a65642000000000000000000000000000000000006000830152602082019050919050565b600061064f601f8361092b565b91507f496e76616c696420616674657220726f756e64206861732073746172746564006000830152602082019050919050565b600061068f60028361092b565b91507f75700000000000000000000000000000000000000000000000000000000000006000830152602082019050919050565b60006106cf60048361092b565b91507f646f776e000000000000000000000000000000000000000000000000000000006000830152602082019050919050565b600061070f600f8361092b565b91507f5472616e73666572204661696c656400000000000000000000000000000000006000830152602082019050919050565b600061074f601e8361092b565b91507f496e76616c6964206265666f726520726f756e642068617320656e64656400006000830152602082019050919050565b61078b81610a0e565b82525050565b6107a261079d82610a0e565b610a22565b82525050565b60006107b482856105eb565b6020820191506107c48284610791565b6020820191508190509392505050565b60006040820190506107e960008301856105dc565b6107f660208301846105dc565b9392505050565b600060608201905061081260008301866105dc565b61081f60208301856105dc565b61082c6040830184610782565b949350505050565b6000602082019050818103600083015261084d81610602565b9050919050565b6000602082019050818103600083015261086d81610642565b9050919050565b6000604082019050818103600083015261088d81610682565b905061089c6020830184610782565b92915050565b600060408201905081810360008301526108bb816106c2565b90506108ca6020830184610782565b92915050565b600060208201905081810360008301526108e981610702565b9050919050565b6000602082019050818103600083015261090981610742565b9050919050565b60006020820190506109256000830184610782565b92915050565b600082825260208201905092915050565b600061094782610a0e565b915061095283610a0e565b9250827fffffffffffffffffffffffffffffffffffffffffffffffffffffffffffffffff0382111561098757610986610a2c565b5b828201905092915050565b600061099d82610a0e565b91506109a883610a0e565b9250828210156109bb576109ba610a2c565b5b828203905092915050565b60006109d1826109ee565b9050919050565b60008115159050919050565b6000819050919050565b600073ffffffffffffffffffffffffffffffffffffffff82169050919050565b6000819050919050565b6000819050919050565b6000819050919050565b7f4e487b7100000000000000000000000000000000000000000000000000000000600052601160045260246000fd5b610a64816109d8565b8114610a6f57600080fd5b50565b610a7b81610a0e565b8114610a8657600080fd5b5056fea2646970667358221220e2233faec2605a20c76cfcfbce3e4925ad32d1a7476b75932abadbac689d567664736f6c63430008000033",
  "immutableReferences": {},
  "source": "pragma solidity >=0.4.22 <0.9.0;\r\nimport \"@openzeppelin/contracts/token/ERC20/IERC20.sol\";\r\n\r\ncontract BPool {\r\n    //User can make a bet by using BNB\r\n\r\n    address owner; // onwer of contract\r\n    address token_; // Accepted token of this pool\r\n    IERC20 token;\r\n\r\n    uint256 totalBetUp; // amount of token bet up\r\n    uint256 totalBetDown;\r\n    // amount of token bet down\r\n    mapping(address => uint256) betUpBalances;\r\n    mapping(address => uint256) betDownBalances;\r\n\r\n    event betEvent(string side, address indexed from, uint256 amount);\r\n\r\n    uint256 startBlock; // Block of starting Price\r\n    uint256 endBlock; // Block of ending price\r\n\r\n    bool isActive; // Whether this block is still active\r\n\r\n    constructor(address _token) {\r\n        owner = msg.sender;\r\n        token_ = _token;\r\n        token = IERC20(_token);\r\n        startBlock = block.number + 10000;\r\n        endBlock = block.number + 20000;\r\n    }\r\n\r\n    modifier onlyBeforeStart() {\r\n        require(block.number < startBlock, \"Invalid after round has started\");\r\n        _;\r\n    }\r\n\r\n    modifier onlyAfterEnd() {\r\n        require(block.number > endBlock, \"Invalid before round has ended\");\r\n        _;\r\n    }\r\n\r\n    // user make a bet\r\n    function bet(uint256 _amount, bool _up) public onlyBeforeStart {\r\n        require(\r\n            token.allowance(msg.sender, address(this)) >= _amount,\r\n            \"Not authorized \"\r\n        );\r\n\r\n        bool success = token.transferFrom(msg.sender, address(this), _amount);\r\n        require(success, \"Transfer Failed\");\r\n\r\n        if (_up) {\r\n            betUpBalances[msg.sender] += _amount;\r\n            totalBetUp += _amount;\r\n            emit betEvent(\"up\", msg.sender, totalBetUp);\r\n        } else {\r\n            betDownBalances[msg.sender] += _amount;\r\n            totalBetDown += _amount;\r\n            emit betEvent(\"down\", msg.sender, totalBetDown);\r\n        }\r\n    }\r\n\r\n    // owner judge the result\r\n    function judge() public onlyAfterEnd {}\r\n\r\n    //return odd of the current betting pairs\r\n    function getBettingOdd() public {}\r\n\r\n    // return total betting value in the pool\r\n    function getBalance() public {}\r\n\r\n    // Get latest price of the undelying betting token\r\n    function getPrice() public view returns (uint256) {\r\n        uint256 price =\r\n            uint256(\r\n                keccak256(\r\n                    (\r\n                        abi.encodePacked(\r\n                            blockhash(block.number - 1),\r\n                            block.timestamp\r\n                        )\r\n                    )\r\n                )\r\n            );\r\n        return price;\r\n    }\r\n}\r\n",
  "sourcePath": "D:/Coding/Smart Contract/F2P/contracts/BPool.sol",
  "compiler": {
    "name": "solc",
    "version": "0.8.0+commit.c7dfd78e.Emscripten.clang"
  },
  "schemaVersion": "3.3.4",
  "updatedAt": "2021-04-02T08:50:01.457Z",
  "networkType": "ethereum",
  "devdoc": {
    "kind": "dev",
    "methods": {},
    "version": 1
  },
  "userdoc": {
    "kind": "user",
    "methods": {},
    "version": 1
  }
}