{
  "contractName": "Pool",
  "abi": [
    {
      "inputs": [
        {
          "internalType": "address",
          "name": "_token1",
          "type": "address"
        },
        {
          "internalType": "address",
          "name": "_token2",
          "type": "address"
        }
      ],
      "stateMutability": "nonpayable",
      "type": "constructor"
    },
    {
      "inputs": [
        {
          "internalType": "address",
          "name": "_tokenIn",
          "type": "address"
        },
        {
          "internalType": "address",
          "name": "_tokenOut",
          "type": "address"
        },
        {
          "internalType": "uint256",
          "name": "_amountIn",
          "type": "uint256"
        }
      ],
      "name": "approveExchangeRate",
      "outputs": [],
      "stateMutability": "nonpayable",
      "type": "function"
    }
  ],
  "bytecode": "0x608060405234801561001057600080fd5b5060405161052e38038061052e83398181016040528101906100329190610120565b336000806101000a81548173ffffffffffffffffffffffffffffffffffffffff021916908373ffffffffffffffffffffffffffffffffffffffff16021790555081600160006101000a81548173ffffffffffffffffffffffffffffffffffffffff021916908373ffffffffffffffffffffffffffffffffffffffff16021790555080600260006101000a81548173ffffffffffffffffffffffffffffffffffffffff021916908373ffffffffffffffffffffffffffffffffffffffff1602179055506000600381905550600060048190555050506101a5565b60008151905061011a8161018e565b92915050565b6000806040838503121561013357600080fd5b60006101418582860161010b565b92505060206101528582860161010b565b9150509250929050565b60006101678261016e565b9050919050565b600073ffffffffffffffffffffffffffffffffffffffff82169050919050565b6101978161015c565b81146101a257600080fd5b50565b61037a806101b46000396000f3fe608060405234801561001057600080fd5b506004361061002b5760003560e01c8063542fa08614610030575b600080fd5b61004a60048036038101906100459190610202565b61004c565b005b6000600a9050600081836100609190610251565b905060006040518060a001604052808773ffffffffffffffffffffffffffffffffffffffff1681526020018673ffffffffffffffffffffffffffffffffffffffff168152602001858152602001838152602001438152509050600660003373ffffffffffffffffffffffffffffffffffffffff1673ffffffffffffffffffffffffffffffffffffffff16815260200190815260200160002081908060018154018082558091505060019003906000526020600020906005020160009091909190915060008201518160000160006101000a81548173ffffffffffffffffffffffffffffffffffffffff021916908373ffffffffffffffffffffffffffffffffffffffff16021790555060208201518160010160006101000a81548173ffffffffffffffffffffffffffffffffffffffff021916908373ffffffffffffffffffffffffffffffffffffffff1602179055506040820151816002015560608201518160030155608082015181600401555050505050505050565b6000813590506101e781610316565b92915050565b6000813590506101fc8161032d565b92915050565b60008060006060848603121561021757600080fd5b6000610225868287016101d8565b9350506020610236868287016101d8565b9250506040610247868287016101ed565b9150509250925092565b600061025c826102dd565b9150610267836102dd565b9250817fffffffffffffffffffffffffffffffffffffffffffffffffffffffffffffffff04831182151516156102a05761029f6102e7565b5b828202905092915050565b60006102b6826102bd565b9050919050565b600073ffffffffffffffffffffffffffffffffffffffff82169050919050565b6000819050919050565b7f4e487b7100000000000000000000000000000000000000000000000000000000600052601160045260246000fd5b61031f816102ab565b811461032a57600080fd5b50565b610336816102dd565b811461034157600080fd5b5056fea264697066735822122014ab351bc1c2b5c0a793d68c707ca3bdea64802a1cf21904bb91c7cc2727df3a64736f6c63430008000033",
  "immutableReferences": {},
  "source": "//SPDX-License-Identifier: UNLICENSED\r\npragma solidity >=0.4.22 <0.9.0;\r\n\r\nimport \"@openzeppelin/contracts/token/ERC20/IERC20.sol\";\r\n\r\n// interface IERC20 {\r\n//     function totalSupply() external view returns (uint256);\r\n//     function balanceOf(address account) external view returns (uint256);\r\n//     function transfer(address recipient, uint256 amount) external returns (bool);\r\n//     function allowance(address owner, address spender) external view returns (uint256);\r\n//     function approve(address spender, uint256 amount) external returns (bool);\r\n//     function transferFrom(address sender, address recipient, uint256 amount) external returns (bool);\r\n//     event Transfer(address indexed from, address indexed to, uint256 value);\r\n//     event Approval(address indexed owner, address indexed spender, uint256 value);\r\n// }\r\n\r\ncontract Pool {\r\n    struct Order {\r\n        address tokenIn;\r\n        address tokenOut;\r\n        uint256 amountIn;\r\n        uint256 amountOut;\r\n        uint256 blockNumber; //Block\r\n    }\r\n\r\n    address owner;\r\n    address token1;\r\n    address token2;\r\n    uint256 reserve1;\r\n    uint256 reserve2;\r\n\r\n    mapping(address => mapping(address => uint256)) balances;\r\n    mapping(address => Order[]) orderBuy;\r\n    mapping(address => uint256) reserve;\r\n\r\n    modifier ownerOnly() {\r\n        require(msg.sender == owner, \"Owner Only\");\r\n        _;\r\n    }\r\n\r\n    constructor(address _token1, address _token2) {\r\n        owner = msg.sender;\r\n        token1 = _token1;\r\n        token2 = _token2;\r\n        reserve1 = 0;\r\n        reserve2 = 0;\r\n    }\r\n\r\n    // Deposit Token\r\n\r\n    function _deposit(uint256 _amount, address _token) internal ownerOnly {\r\n        IERC20 token = IERC20(_token);\r\n        require(\r\n            token.allowance(msg.sender, address(this)) >= _amount,\r\n            \"Not authorized\"\r\n        );\r\n        bool success = token.transferFrom(msg.sender, address(this), _amount);\r\n        require(success, \"Transfer Failed\");\r\n        balances[_token][msg.sender] += _amount;\r\n        reserve[_token] += _amount;\r\n    }\r\n\r\n    // Withdraw Token\r\n\r\n    function _withdraw(uint256 _amount, address _token) internal ownerOnly {\r\n        IERC20 token = IERC20(_token);\r\n        require(\r\n            token.allowance(msg.sender, address(this)) >= _amount,\r\n            \"Not authorized amount\"\r\n        );\r\n        bool success = token.transferFrom(msg.sender, address(this), _amount);\r\n        require(success, \"Transfer Failed\");\r\n        require(balances[_token][msg.sender] >= _amount, \"Insufficient\");\r\n\r\n        balances[_token][msg.sender] -= _amount;\r\n        reserve[_token] -= _amount;\r\n    }\r\n\r\n    function approveExchangeRate(\r\n        address _tokenIn,\r\n        address _tokenOut,\r\n        uint256 _amountIn\r\n    ) public {\r\n        //Dummy go get exchange rate\r\n        uint256 exchangeRate = 10;\r\n        uint256 amountOut = _amountIn * (exchangeRate);\r\n\r\n        Order memory newOrder =\r\n            Order(_tokenIn, _tokenOut, _amountIn, amountOut, block.number);\r\n        orderBuy[msg.sender].push(newOrder);\r\n    }\r\n}\r\n",
  "sourcePath": "D:/Coding/Smart Contract/F2P/contracts/Pool.sol",
  "compiler": {
    "name": "solc",
    "version": "0.8.0+commit.c7dfd78e.Emscripten.clang"
  },
  "schemaVersion": "3.3.4",
  "updatedAt": "2021-03-25T07:44:36.783Z",
  "networkType": "ethereum",
  "devdoc": {
    "kind": "dev",
    "methods": {},
    "version": 1
  },
  "userdoc": {
    "kind": "user",
    "methods": {},
    "version": 1
  }
}