{
  "contractName": "Pool",
  "abi": [
    {
      "inputs": [
        {
          "internalType": "address",
          "name": "_token1",
          "type": "address"
        },
        {
          "internalType": "address",
          "name": "_token2",
          "type": "address"
        }
      ],
      "stateMutability": "nonpayable",
      "type": "constructor"
    },
    {
      "inputs": [],
      "name": "owner",
      "outputs": [
        {
          "internalType": "address",
          "name": "",
          "type": "address"
        }
      ],
      "stateMutability": "view",
      "type": "function",
      "constant": true
    },
    {
      "inputs": [],
      "name": "token1",
      "outputs": [
        {
          "internalType": "address",
          "name": "",
          "type": "address"
        }
      ],
      "stateMutability": "view",
      "type": "function",
      "constant": true
    },
    {
      "inputs": [],
      "name": "token2",
      "outputs": [
        {
          "internalType": "address",
          "name": "",
          "type": "address"
        }
      ],
      "stateMutability": "view",
      "type": "function",
      "constant": true
    },
    {
      "inputs": [
        {
          "internalType": "uint256",
          "name": "_amount",
          "type": "uint256"
        },
        {
          "internalType": "address",
          "name": "_token",
          "type": "address"
        }
      ],
      "name": "deposit",
      "outputs": [],
      "stateMutability": "nonpayable",
      "type": "function"
    },
    {
      "inputs": [
        {
          "internalType": "uint256",
          "name": "_amount",
          "type": "uint256"
        },
        {
          "internalType": "address",
          "name": "_token",
          "type": "address"
        }
      ],
      "name": "withdraw",
      "outputs": [],
      "stateMutability": "nonpayable",
      "type": "function"
    },
    {
      "inputs": [
        {
          "internalType": "address",
          "name": "_user",
          "type": "address"
        },
        {
          "internalType": "address",
          "name": "_token",
          "type": "address"
        }
      ],
      "name": "getBalance",
      "outputs": [
        {
          "internalType": "uint256",
          "name": "",
          "type": "uint256"
        }
      ],
      "stateMutability": "view",
      "type": "function",
      "constant": true
    },
    {
      "inputs": [
        {
          "internalType": "address",
          "name": "_tokenIn",
          "type": "address"
        },
        {
          "internalType": "address",
          "name": "_tokenOut",
          "type": "address"
        }
      ],
      "name": "getExchangeRate",
      "outputs": [
        {
          "internalType": "uint256",
          "name": "",
          "type": "uint256"
        }
      ],
      "stateMutability": "pure",
      "type": "function",
      "constant": true
    },
    {
      "inputs": [
        {
          "internalType": "address",
          "name": "_tokenIn",
          "type": "address"
        },
        {
          "internalType": "uint256",
          "name": "_amountIn",
          "type": "uint256"
        }
      ],
      "name": "approveExchangeRate",
      "outputs": [],
      "stateMutability": "nonpayable",
      "type": "function"
    },
    {
      "inputs": [],
      "name": "swap",
      "outputs": [],
      "stateMutability": "nonpayable",
      "type": "function"
    }
  ],
  "bytecode": "0x60806040523480156200001157600080fd5b506040516200194c3803806200194c833981810160405281019062000037919062000128565b336000806101000a81548173ffffffffffffffffffffffffffffffffffffffff021916908373ffffffffffffffffffffffffffffffffffffffff16021790555081600160006101000a81548173ffffffffffffffffffffffffffffffffffffffff021916908373ffffffffffffffffffffffffffffffffffffffff16021790555080600260006101000a81548173ffffffffffffffffffffffffffffffffffffffff021916908373ffffffffffffffffffffffffffffffffffffffff160217905550600060038190555060006004819055505050620001b7565b60008151905062000122816200019d565b92915050565b600080604083850312156200013c57600080fd5b60006200014c8582860162000111565b92505060206200015f8582860162000111565b9150509250929050565b600062000176826200017d565b9050919050565b600073ffffffffffffffffffffffffffffffffffffffff82169050919050565b620001a88162000169565b8114620001b457600080fd5b50565b61178580620001c76000396000f3fe608060405234801561001057600080fd5b50600436106100925760003560e01c80638119c065116100665780638119c065146101095780638da5cb5b14610113578063baaa61be14610131578063d21220a714610161578063d4fac45d1461017f57610092565b8062f714ce1461009757806325be124e146100b35780634fa13a38146100d15780636e553f65146100ed575b600080fd5b6100b160048036038101906100ac9190611125565b6101af565b005b6100bb610590565b6040516100c8919061137f565b60405180910390f35b6100eb60048036038101906100e69190611097565b6105b6565b005b61010760048036038101906101029190611125565b610903565b005b610111610c25565b005b61011b610f29565b604051610128919061137f565b60405180910390f35b61014b6004803603810190610146919061105b565b610f4d565b6040516101589190611523565b60405180910390f35b610169610f5a565b604051610176919061137f565b60405180910390f35b6101996004803603810190610194919061105b565b610f80565b6040516101a69190611523565b60405180910390f35b60008054906101000a900473ffffffffffffffffffffffffffffffffffffffff1673ffffffffffffffffffffffffffffffffffffffff163373ffffffffffffffffffffffffffffffffffffffff161461023d576040517f08c379a000000000000000000000000000000000000000000000000000000000815260040161023490611423565b60405180910390fd5b6000819050828173ffffffffffffffffffffffffffffffffffffffff1663dd62ed3e33306040518363ffffffff1660e01b815260040161027e92919061139a565b60206040518083038186803b15801561029657600080fd5b505afa1580156102aa573d6000803e3d6000fd5b505050506040513d601f19601f820116820180604052508101906102ce91906110fc565b101561030f576040517f08c379a000000000000000000000000000000000000000000000000000000000815260040161030690611463565b60405180910390fd5b60008173ffffffffffffffffffffffffffffffffffffffff166323b872dd3330876040518463ffffffff1660e01b815260040161034e939291906113c3565b602060405180830381600087803b15801561036857600080fd5b505af115801561037c573d6000803e3d6000fd5b505050506040513d601f19601f820116820180604052508101906103a091906110d3565b9050806103e2576040517f08c379a00000000000000000000000000000000000000000000000000000000081526004016103d9906114e3565b60405180910390fd5b83600560008573ffffffffffffffffffffffffffffffffffffffff1673ffffffffffffffffffffffffffffffffffffffff16815260200190815260200160002060003373ffffffffffffffffffffffffffffffffffffffff1673ffffffffffffffffffffffffffffffffffffffff1681526020019081526020016000205410156104a1576040517f08c379a000000000000000000000000000000000000000000000000000000000815260040161049890611443565b60405180910390fd5b83600560008573ffffffffffffffffffffffffffffffffffffffff1673ffffffffffffffffffffffffffffffffffffffff16815260200190815260200160002060003373ffffffffffffffffffffffffffffffffffffffff1673ffffffffffffffffffffffffffffffffffffffff168152602001908152602001600020600082825461052d9190611630565b9250508190555083600760008573ffffffffffffffffffffffffffffffffffffffff1673ffffffffffffffffffffffffffffffffffffffff16815260200190815260200160002060008282546105839190611630565b9250508190555050505050565b600260009054906101000a900473ffffffffffffffffffffffffffffffffffffffff1681565b600073ffffffffffffffffffffffffffffffffffffffff16600660003373ffffffffffffffffffffffffffffffffffffffff1673ffffffffffffffffffffffffffffffffffffffff16815260200190815260200160002060000160009054906101000a900473ffffffffffffffffffffffffffffffffffffffff1673ffffffffffffffffffffffffffffffffffffffff1614610687576040517f08c379a000000000000000000000000000000000000000000000000000000000815260040161067e906114a3565b60405180910390fd5b6000600160009054906101000a900473ffffffffffffffffffffffffffffffffffffffff1673ffffffffffffffffffffffffffffffffffffffff168373ffffffffffffffffffffffffffffffffffffffff161461070657600160009054906101000a900473ffffffffffffffffffffffffffffffffffffffff1661072a565b600260009054906101000a900473ffffffffffffffffffffffffffffffffffffffff165b905060006107388483610f4d565b9050600160009054906101000a900473ffffffffffffffffffffffffffffffffffffffff1673ffffffffffffffffffffffffffffffffffffffff168473ffffffffffffffffffffffffffffffffffffffff16146107a15780600161079c91906115a5565b6107a3565b805b9050600081846107b391906115d6565b905060006040518060a001604052808773ffffffffffffffffffffffffffffffffffffffff1681526020018573ffffffffffffffffffffffffffffffffffffffff16815260200186815260200183815260200143815250905080600660003373ffffffffffffffffffffffffffffffffffffffff1673ffffffffffffffffffffffffffffffffffffffff16815260200190815260200160002060008201518160000160006101000a81548173ffffffffffffffffffffffffffffffffffffffff021916908373ffffffffffffffffffffffffffffffffffffffff16021790555060208201518160010160006101000a81548173ffffffffffffffffffffffffffffffffffffffff021916908373ffffffffffffffffffffffffffffffffffffffff160217905550604082015181600201556060820151816003015560808201518160040155905050505050505050565b60008054906101000a900473ffffffffffffffffffffffffffffffffffffffff1673ffffffffffffffffffffffffffffffffffffffff163373ffffffffffffffffffffffffffffffffffffffff1614610991576040517f08c379a000000000000000000000000000000000000000000000000000000000815260040161098890611423565b60405180910390fd5b6000819050828173ffffffffffffffffffffffffffffffffffffffff1663dd62ed3e33306040518363ffffffff1660e01b81526004016109d292919061139a565b60206040518083038186803b1580156109ea57600080fd5b505afa1580156109fe573d6000803e3d6000fd5b505050506040513d601f19601f82011682018060405250810190610a2291906110fc565b1015610a63576040517f08c379a0000000000000000000000000000000000000000000000000000000008152600401610a5a90611503565b60405180910390fd5b60008173ffffffffffffffffffffffffffffffffffffffff166323b872dd3330876040518463ffffffff1660e01b8152600401610aa2939291906113c3565b602060405180830381600087803b158015610abc57600080fd5b505af1158015610ad0573d6000803e3d6000fd5b505050506040513d601f19601f82011682018060405250810190610af491906110d3565b905080610b36576040517f08c379a0000000000000000000000000000000000000000000000000000000008152600401610b2d906114e3565b60405180910390fd5b83600560008573ffffffffffffffffffffffffffffffffffffffff1673ffffffffffffffffffffffffffffffffffffffff16815260200190815260200160002060003373ffffffffffffffffffffffffffffffffffffffff1673ffffffffffffffffffffffffffffffffffffffff1681526020019081526020016000206000828254610bc2919061154f565b9250508190555083600760008573ffffffffffffffffffffffffffffffffffffffff1673ffffffffffffffffffffffffffffffffffffffff1681526020019081526020016000206000828254610c18919061154f565b9250508190555050505050565b6000600660003373ffffffffffffffffffffffffffffffffffffffff1673ffffffffffffffffffffffffffffffffffffffff1681526020019081526020016000206040518060a00160405290816000820160009054906101000a900473ffffffffffffffffffffffffffffffffffffffff1673ffffffffffffffffffffffffffffffffffffffff1673ffffffffffffffffffffffffffffffffffffffff1681526020016001820160009054906101000a900473ffffffffffffffffffffffffffffffffffffffff1673ffffffffffffffffffffffffffffffffffffffff1673ffffffffffffffffffffffffffffffffffffffff16815260200160028201548152602001600382015481526020016004820154815250509050600073ffffffffffffffffffffffffffffffffffffffff16816000015173ffffffffffffffffffffffffffffffffffffffff161415610db1576040517f08c379a0000000000000000000000000000000000000000000000000000000008152600401610da8906114a3565b60405180910390fd5b6003816080015143610dc39190611630565b1015610e04576040517f08c379a0000000000000000000000000000000000000000000000000000000008152600401610dfb906114c3565b60405180910390fd5b6000610e1882600001518360200151610f4d565b90506000826040015182610e2c91906115d6565b905060016103e8846060015183610e4391906115a5565b610e4d91906115d6565b1115610e8e576040517f08c379a0000000000000000000000000000000000000000000000000000000008152600401610e8590611483565b60405180910390fd5b826020015173ffffffffffffffffffffffffffffffffffffffff1663a9059cbb3385606001516040518363ffffffff1660e01b8152600401610ed19291906113fa565b602060405180830381600087803b158015610eeb57600080fd5b505af1158015610eff573d6000803e3d6000fd5b505050506040513d601f19601f82011682018060405250810190610f2391906110d3565b50505050565b60008054906101000a900473ffffffffffffffffffffffffffffffffffffffff1681565b6000612710905092915050565b600160009054906101000a900473ffffffffffffffffffffffffffffffffffffffff1681565b6000600560008373ffffffffffffffffffffffffffffffffffffffff1673ffffffffffffffffffffffffffffffffffffffff16815260200190815260200160002060008473ffffffffffffffffffffffffffffffffffffffff1673ffffffffffffffffffffffffffffffffffffffff16815260200190815260200160002054905092915050565b6000813590506110168161170a565b92915050565b60008151905061102b81611721565b92915050565b60008135905061104081611738565b92915050565b60008151905061105581611738565b92915050565b6000806040838503121561106e57600080fd5b600061107c85828601611007565b925050602061108d85828601611007565b9150509250929050565b600080604083850312156110aa57600080fd5b60006110b885828601611007565b92505060206110c985828601611031565b9150509250929050565b6000602082840312156110e557600080fd5b60006110f38482850161101c565b91505092915050565b60006020828403121561110e57600080fd5b600061111c84828501611046565b91505092915050565b6000806040838503121561113857600080fd5b600061114685828601611031565b925050602061115785828601611007565b9150509250929050565b61116a81611664565b82525050565b600061117d600a8361153e565b91507f4f776e6572204f6e6c79000000000000000000000000000000000000000000006000830152602082019050919050565b60006111bd600c8361153e565b91507f496e73756666696369656e7400000000000000000000000000000000000000006000830152602082019050919050565b60006111fd60158361153e565b91507f4e6f7420617574686f72697a656420616d6f756e7400000000000000000000006000830152602082019050919050565b600061123d60128361153e565b91507f536c697070616765206f76657220302e312500000000000000000000000000006000830152602082019050919050565b600061127d60158361153e565b91507f50656e64696e67204f72646572204578697374656400000000000000000000006000830152602082019050919050565b60006112bd601d8361153e565b91507f506c656173652077616974206174206c65617374203320626c6f636b730000006000830152602082019050919050565b60006112fd600f8361153e565b91507f5472616e73666572204661696c656400000000000000000000000000000000006000830152602082019050919050565b600061133d600e8361153e565b91507f4e6f7420617574686f72697a65640000000000000000000000000000000000006000830152602082019050919050565b611379816116a2565b82525050565b60006020820190506113946000830184611161565b92915050565b60006040820190506113af6000830185611161565b6113bc6020830184611161565b9392505050565b60006060820190506113d86000830186611161565b6113e56020830185611161565b6113f26040830184611370565b949350505050565b600060408201905061140f6000830185611161565b61141c6020830184611370565b9392505050565b6000602082019050818103600083015261143c81611170565b9050919050565b6000602082019050818103600083015261145c816111b0565b9050919050565b6000602082019050818103600083015261147c816111f0565b9050919050565b6000602082019050818103600083015261149c81611230565b9050919050565b600060208201905081810360008301526114bc81611270565b9050919050565b600060208201905081810360008301526114dc816112b0565b9050919050565b600060208201905081810360008301526114fc816112f0565b9050919050565b6000602082019050818103600083015261151c81611330565b9050919050565b60006020820190506115386000830184611370565b92915050565b600082825260208201905092915050565b600061155a826116a2565b9150611565836116a2565b9250827fffffffffffffffffffffffffffffffffffffffffffffffffffffffffffffffff0382111561159a576115996116ac565b5b828201905092915050565b60006115b0826116a2565b91506115bb836116a2565b9250826115cb576115ca6116db565b5b828204905092915050565b60006115e1826116a2565b91506115ec836116a2565b9250817fffffffffffffffffffffffffffffffffffffffffffffffffffffffffffffffff0483118215151615611625576116246116ac565b5b828202905092915050565b600061163b826116a2565b9150611646836116a2565b925082821015611659576116586116ac565b5b828203905092915050565b600061166f82611682565b9050919050565b60008115159050919050565b600073ffffffffffffffffffffffffffffffffffffffff82169050919050565b6000819050919050565b7f4e487b7100000000000000000000000000000000000000000000000000000000600052601160045260246000fd5b7f4e487b7100000000000000000000000000000000000000000000000000000000600052601260045260246000fd5b61171381611664565b811461171e57600080fd5b50565b61172a81611676565b811461173557600080fd5b50565b611741816116a2565b811461174c57600080fd5b5056fea2646970667358221220274845d047e051ff6d462be9bf61be821bea80f66a21fa398bb80acfd1041a8764736f6c63430008000033",
  "immutableReferences": {},
  "source": "//SPDX-License-Identifier: UNLICENSED\r\npragma solidity >=0.4.22 <0.9.0;\r\n\r\nimport \"@openzeppelin/contracts/token/ERC20/IERC20.sol\";\r\n\r\n// interface IERC20 {\r\n//     function totalSupply() external view returns (uint256);\r\n//     function balanceOf(address account) external view returns (uint256);\r\n//     function transfer(address recipient, uint256 amount) external returns (bool);\r\n//     function allowance(address owner, address spender) external view returns (uint256);\r\n//     function approve(address spender, uint256 amount) external returns (bool);\r\n//     function transferFrom(address sender, address recipient, uint256 amount) external returns (bool);\r\n//     event Transfer(address indexed from, address indexed to, uint256 value);\r\n//     event Approval(address indexed owner, address indexed spender, uint256 value);\r\n// }\r\n\r\ncontract Pool {\r\n    struct Order {\r\n        address tokenIn;\r\n        address tokenOut;\r\n        uint256 amountIn;\r\n        uint256 amountOut;\r\n        uint256 blockNumber; //Block\r\n    }\r\n\r\n    address public owner;\r\n    address public token1;\r\n    address public token2;\r\n    uint256 reserve1;\r\n    uint256 reserve2;\r\n\r\n    mapping(address => mapping(address => uint256)) balances;\r\n    mapping(address => Order) orders;\r\n    mapping(address => uint256) reserve;\r\n\r\n    modifier ownerOnly() {\r\n        require(msg.sender == owner, \"Owner Only\");\r\n        _;\r\n    }\r\n\r\n    constructor(address _token1, address _token2) {\r\n        owner = msg.sender;\r\n        token1 = _token1;\r\n        token2 = _token2;\r\n        reserve1 = 0;\r\n        reserve2 = 0;\r\n    }\r\n\r\n    // Deposit Token\r\n\r\n    function deposit(uint256 _amount, address _token) external ownerOnly {\r\n        IERC20 token = IERC20(_token);\r\n        require(\r\n            token.allowance(msg.sender, address(this)) >= _amount,\r\n            \"Not authorized\"\r\n        );\r\n        bool success = token.transferFrom(msg.sender, address(this), _amount);\r\n        require(success, \"Transfer Failed\");\r\n        balances[_token][msg.sender] += _amount;\r\n        reserve[_token] += _amount;\r\n    }\r\n\r\n    // Withdraw Token\r\n\r\n    function withdraw(uint256 _amount, address _token) external ownerOnly {\r\n        IERC20 token = IERC20(_token);\r\n        require(\r\n            token.allowance(msg.sender, address(this)) >= _amount,\r\n            \"Not authorized amount\"\r\n        );\r\n        bool success = token.transferFrom(msg.sender, address(this), _amount);\r\n        require(success, \"Transfer Failed\");\r\n        require(balances[_token][msg.sender] >= _amount, \"Insufficient\");\r\n\r\n        balances[_token][msg.sender] -= _amount;\r\n        reserve[_token] -= _amount;\r\n    }\r\n\r\n    function getBalance(address _user, address _token)\r\n        public\r\n        view\r\n        returns (uint256)\r\n    {\r\n        return (balances[_token][_user]);\r\n    }\r\n\r\n    function getExchangeRate(address _tokenIn, address _tokenOut)\r\n        public\r\n        pure\r\n        returns (uint256)\r\n    {\r\n        /// Return exchange rate with X decimal places for now lets do 5\r\n        return (10000);\r\n    }\r\n\r\n    function approveExchangeRate(address _tokenIn, uint256 _amountIn) public {\r\n        //Dummy go get exchange rate\r\n        require(\r\n            orders[msg.sender].tokenIn == address(0),\r\n            \"Pending Order Existed\"\r\n        );\r\n        address tokenOut = _tokenIn == token1 ? token2 : token1;\r\n        uint256 exchangeRate = getExchangeRate(_tokenIn, tokenOut);\r\n        exchangeRate = _tokenIn == token1 ? exchangeRate : 1 / exchangeRate;\r\n        uint256 amountOut = _amountIn * (exchangeRate);\r\n        Order memory newOrder =\r\n            Order(_tokenIn, tokenOut, _amountIn, amountOut, block.number);\r\n        orders[msg.sender] = newOrder;\r\n    }\r\n\r\n    function swap() public {\r\n        //looking for existing order then swap\r\n        //first will need to get the current price\r\n        // require block timestamp to be at lease 3 blocks to avoid price manipulation\r\n        Order memory order = orders[msg.sender];\r\n        require(order.tokenIn != address(0), \"Pending Order Existed\");\r\n        require(\r\n            block.number - order.blockNumber >= 3,\r\n            \"Please wait at least 3 blocks\"\r\n        );\r\n\r\n        uint256 newExchangeRate =\r\n            getExchangeRate(order.tokenIn, order.tokenOut);\r\n        uint256 newAmountOut = newExchangeRate * order.amountIn;\r\n\r\n        require(\r\n            (newAmountOut / order.amountOut) * 1000 <= 1,\r\n            \"Slippage over 0.1%\"\r\n        );\r\n        IERC20(order.tokenOut).transfer(msg.sender, order.amountOut);\r\n    }\r\n}\r\n",
  "sourcePath": "D:/Coding/Smart Contract/F2P/contracts/Pool.sol",
  "compiler": {
    "name": "solc",
    "version": "0.8.0+commit.c7dfd78e.Emscripten.clang"
  },
  "schemaVersion": "3.3.4",
  "updatedAt": "2021-04-03T07:27:16.387Z",
  "networkType": "ethereum",
  "devdoc": {
    "kind": "dev",
    "methods": {},
    "version": 1
  },
  "userdoc": {
    "kind": "user",
    "methods": {},
    "version": 1
  }
}